:020000001528C1
:0C00060083120D088A000C08820008001C
:1000120003208A110A128000840A8C0A03198D0AAD
:08002200C003031D09280800BA
:10002A00831686018312860186170630CB001330A9
:10003A00CC00AD30CD00CD0B2028CC0B2028CB0B2B
:10004A0020280000000086130630CB001330CC00B5
:10005A00AD30CD00CD0B2F28CC0B2F28CB0B2F2862
:10006A000000000086171A30CB005E30CC006E30DC
:10007A00CD00CD0B3E28CC0B3E28CB0B3E280000F2
:04008A0019284628C3
:02400E00FA3F77
:00000001FF
