:1000000035EF00F00000000000EF00F000000000FD
:0A0010000000000000000000F3D71C
:10001C000900F5CFE6FF0006FBE10106F9E112004D
:10002C008A800B0E0B6E260E0C6E5D0E0D6E0D2E59
:10003C00FED70C2EFCD70B2EFAD7000000008A90AE
:10004C000B0E0B6E260E0C6E5D0E0D6E0D2EFED76E
:0E005C000C2EFCD70B2EFAD70000000012006D
:10006A000F0EC16EFE0E936EFE0E816EDADF180E53
:10007A002D6E000E2E6E2F6E306E000E296E010E42
:10008A002A6E000E2B6E2C6ED60E256ECD0E266EA7
:10009A00120E276E000E286E800E216E5B0E226EE7
:1000AA00000E236E246E910E156EE20E166E650E0C
:1000BA00176E010E186E590E196E970E1A6E030EF0
:1000CA001B6E000E1C6E5E0E1D6E8C0E1E6E030ED7
:0A00DA001F6E000E206ECAD7FFD77C
:020000040030CA
:0E0000001B0E1E1EFF8381FF0FC00FE00F407E
:00000001FF
